:0400000081EF00F09C
:100008000C480C480C480C4840000C4840000C4870
:100018000C480C480C480C480C480C480C480C4838
:100028000C484000400040000C480C480C480C4864
:100038000C480C480C480C480C480C480C480C4818
:100048000C480C480C480C48400040000C480C4830
:100058000C480C480C4840000C480C480C480C480C
:100068000C480C480C480C480C480C480C480C48E8
:100078000C480C480C480C4840000C480C480C48EC
:100088000C480C480C480C480C480C480C480C48C8
:100098000C480C480C480C4840000C4840004000F4
:1000A8000C480C480C480C480C480C480C480C48A8
:1000B8000C480C480C480C480C480C480C480C4898
:1000C8000C480C480C480C480C480C480C480C4888
:1000D8000C480C480C480C480C480C480C480C4878
:1000E80040000C480C480C484000400040004000CC
:0E00F8000C480C480C480C48FF007BEF8FF0C2
:107FE200005053E4008AE0A084043C80741EFEC06A
:107FF200A284043C707504B017E6018B1E82048AC9
:10800200C48807FEC380E37F891E82045B58FBCFCE
:1080120053A084043C0074F9FAA084043C707508EF
:108022008AE0B037E6018AC4FEC8A284048B1E80AF
:10803200048A07FEC380E37F891E80045BFBC35072
:10804200E401240174FA58E600C3FCAC3C00740558
:10805200E8ECFFEBF6C3E8B7FFCFA08404CFE8DE7D
:10806200FFCF8CC88ED88EC08ED0BC0005C706EC60
:10807200037580A3EE03C706F0037980A3F203C75A
:1080820006F4037D80A3F603C706F8030082A3FA71
:1080920003C706FC030080A3FE03BA0100B000EE92
:1080A200EEEEB040EEB91000E2FEB04EEEB037EEAA
:1080B20032C0A28404A10004A38004A38204FBE9C9
:1080C2001F01FFFFFFFFFFFFFFFFFFFFFFFFFFFF9C
:1080D200FFFFFFFFFFFFFFFFFFFFFFFFFFFFFFFFAE
:1080E200FFFFFFFFFFFFFFFFFFFFFFFFFFFFFFFF9E
:1080F200FFFFFFFFFFFFFFFFFFFFFFFFFFFFFFFF8E
:10810200FFFFFFFFFFFFFFFFFFFFFFFFFFFFFFFF7D
:10811200FFFFFFFFFFFFFFFFFFFFFFFFFFFFFFFF6D
:10812200FFFFFFFFFFFFFFFFFFFFFFFFFFFFFFFF5D
:10813200FFFFFFFFFFFFFFFFFFFFFFFFFFFFFFFF4D
:10814200FFFFFFFFFFFFFFFFFFFFFFFFFFFFFFFF3D
:10815200FFFFFFFFFFFFFFFFFFFFFFFFFFFFFFFF2D
:10816200FFFFFFFFFFFFFFFFFFFFFFFFFFFFFFFF1D
:10817200FFFFFFFFFFFFFFFFFFFFFFFFFFFFFFFF0D
:10818200FFFFFFFFFFFFFFFFFFFFFFFFFFFFFFFFFD
:10819200FFFFFFFFFFFFFFFFFFFFFFFFFFFFFFFFED
:1081A200FFFFFFFFFFFFFFFFFFFFFFFFFFFFFFFFDD
:1081B200FFFFFFFFFFFFFFFFFFFFFFFFFFFFFFFFCD
:1081C200FFFFFFFFFFFFFFFFFFFFFFFFFFFFFFFFBD
:1081D200FFFFFFFFFFFFFFFFFFFFFFFFFFFFFFFFAD
:1081E200FFEB06A084043C00C3EB03E99000EB0420
:1081F200D18C2297BB45088BE3E95D25BA1685B57C
:1082020068BB450887DA8A0787DA88074342FECDCA
:1082120075F28BE3E88C05E8290DA2F408A2430964
:10822200BBA7099F439E8AC70AC3740E8A078AE8BE
:10823200F6D088073A07882F74E99F4B9EBAA609A1
:10824200E855077242BACEFF891EF90803DA891E81
:10825200A408E816058B1EA408BAEFFF03DABA4396
:10826200098AC32AC28AD88AC71AC68AF853BBBDEA
:1082720082E814165BE8881FBBAE82E80A16BCB01F
:1082820008E81F05E9C203BB0483E8FB15EBFE20E7
:10829200427974657320667265650D0A0000494E65
:1082A20054454C3830383020426173656420783848
:1082B200362042415349432056657220342E37629C
:1082C2000D0A436F70797269676874202843292008
:1082D20031393738206279204D6963726F736F6666
:1082E200740D0A00004D656D6F72792073697A65AD
:1082F200206E6F7420656E6F7567680D0A5468652D
:108302002073797374656D2069732073746F707054
:1083120065642E0D0A0000D59F0BA1EF9F4808F45B
:1083220096E99B309786A395A4FD9DE6A324A52AF2
:10833200A597A5ADA5469C1CA69B08CE9A0598A11B
:108342009BE19AFB9A46A600A70D9B4B9B5A9BC5A5
:108352004E44C64F52CE455854C4415441C94E5062
:108362005554C4494DD2454144CC4554C74F544F4E
:10837200D2554EC946D24553544F5245C74F535515
:1083820042D2455455524ED2454DD3544F50CF55FB
:1083920054CF4ECE554C4CD7414954C44546D04F8C
:1083A2004B45C44F4B45D3435245454ECC494E45B0
:1083B20053C34C53D749445448CD4F4E49544F525E
:1083C200D34554D245534554D052494E54C34F4ECF
:1083D20054CC495354C34C454152C34C4F4144C3FE
:1083E20053415645CE4557D4414228D44FC64ED369
:1083F200504328D448454ECE4F54D3544550ABAD8C
:10840200AAAFDEC14E44CF52BEBDBCD3474EC94E09
:1084120054C14253D55352C65245C94E50D04F5300
:10842200D35152D24E44CC4F47C55850C34F53D369
:10843200494ED4414EC1544ED045454BC445454B9F
:10844200D04F494E54CC454ED3545224D6414CC100
:108452005343C3485224C8455824C2494E24CC45EC
:10846200465424D24947485424CD49442480438C5D
:10847200E38A48910E8E009078943A90318EAF8DB7
:10848200878DC38EF08B948DD88D128E3C8CF59B8C
:108492009C8EA08CFB9B3997529C29A6128E0DA60E
:1084A200FFA504A674A79E08A108ED8E848C338ACA
:1084B200298D128E128E878779FFA179759C7C4C4B
:1084C2009E7CCB9E7F8FA35069934665934E465305
:1084D2004E52474F4446434F564F4D554C425344DC
:1084E200442F304944544D4F534C535354434E55EB
:1084F200464D4F4858424EE984FDE9CF07E600C396
:108502002C008AD88AC71C008AF88AC51C008AE80F
:10851200B000C3000000354ACA99391C76982295EA
:10852200B3980ADD479853D199990A1A9F9865BC66
:10853200CD98D6773E9852C74F80E400C301FF1C06
:1085420000001400140000000000E9C303E9917A5E
:10855200E98E7AE98B7AA709FEFF440920457272F7
:108562006F720020696E20004F6B0D0A000042728C
:1085720065616B00BB040003DC8A07433C81740124
:10858200C38A0F438A2F43538BD98AC60AC287DA1A
:10859200740587DAE80104B90D005B7501C303D9DC
:1085A200EBD7E82600518BEC875E0059E8E9038A95
:1085B2000787D9880787D97501C3494BEBEE538BDF
:1085C2001E2409B50003D903D9EB0153B0D02AC345
:1085D2008AD8B0FF1AC772088AF803DC5B7301C33A
:1085E200B20CEB228B1E1309891EA608B202EB16EF
:1085F200B214EB12B200EB0EB212EB0AB222EB068D
:10860200B20AEB02B218E89A01A28F08E82609BB67
:10861200EC848AF0B03FE8A40303DA8A07E89D03FA
:10862200E89A05E89703BB7B85E85C128B1EA608D7
:10863200BAFEFFE862037503E9B9FB8AC722C3FEEB
:10864200C07406E8B21BEB015932C0A28F08E8E4FD
:1086520008BB8785E83112BBFFFF891EA608E8AF79
:108662000272F4E85705FEC0FEC874EB9F86E05024
:1086720086E0E85C0652E85D018AE85A5886E09E88
:108682007203E90905525132C0A21609E82E050A01
:10869200C09F86E05086E0E89C0072115886E09EFA
:1086A2009F86E05086E07503E909070AC0517321ED
:1086B20087DA8B1E200987DA8A0787DA87D9880743
:1086C20087D99F41429EE8CF0275EB8BD9891E2044
:1086D200095A5886E09E74358B1E20098BEC875E02
:1086E200005903D953E8BAFE5B891E200987DA884C
:1086F2003F5A9F43438817438837439EBAAB088744
:10870200DA8A0787DA880743420AC075F2E86F00FF
:108712009F439E87DA8BDA8A07430A077503E93695
:10872200FF43434332C03A079F439E75F987DA8875
:1087320017438837EBDF8B1EA8088BCB8A07430AC7
:10874200079F4B9E7501C343438A07438A3F8AD8DA
:10875200E845028BD98A079F439E8A3F8AD8F575DE
:1087620001C3F57201C3EBD27401C38B1EA8083298
:10877200C088079F439E88079F439E891E20098BBE
:108782001EA8089F4B9E891E18098B1EF908891E78
:108792000D0932C0E83A048B1E2009891E2209897C
:1087A2001E2409598B1EA4088BE3BBFD08891EFBFE
:1087B2000832C08AD88AF8891E1E09A21509891EA4
:1087C200280953518B1E1809C3B03FE8EF01B020AE
:1087D200E8EA01E93A0132C0A2F808B105BAAB08E9
:1087E2008A073C207503E99E008AE83C227503E96A
:1087F200C1000AC07503E9CA00A0F8080AC08A07C6
:108802007403E982003C3FB09E7502EB7A8A073C12
:108812003072063C3C7302EB6E52BA6D8351B9A0C2
:108822008851B57F8A073C6172083C7B7304245FE0
:1088320088078A0F87DA9F439E0A0779F9FEC58A5D
:1088420007247F7501C33AC175EC87DA539F429EB4
:1088520087DA8A0787DA0AC0781E8AC88AC53C88FE
:108862007506E858039F4B9E438A073C61720224B7
:108872005F3AC174D85BEBBA8ACD5886E09E87DA3C
:10888200C387DA8AC1595A9F439E87DA880787DAF3
:108892009F429EFEC12C3A74043C497503A2F8081B
:1088A2002C547403E939FF8AE88A070AC074143A1F
:1088B200C574D49F439E87DA880787DAFEC19F4238
:1088C2009EEBE6BBAA0887DA880787DA4287DA884E
:1088D2000787DA4287DA880787DAC3A08E080AC0D8
:1088E200B000A28E087509FECD7425E8CF00EB0218
:1088F200FECD9F4B9E74118A07E8C100EB1CFECD92
:108902009F4B9EE8B7007512E8B200E83506EB000F
:10891200BBAB08B50132C0A28E08E8E2008AC83CAF
:108922007F74B8A08E080AC0740AB000E88E0032C4
:10893200C0A28E088AC13C07743E3C037503E8025C
:1089420006F97501C33C0D7503E9F1053C1574BBCD
:108952003C4074B43C5F74A63C0874A23C1275148B
:10896200515253C60700E8051EBBAB08E8190F5B5E
:108972005A59EBA63C2072A28AC53C49B007731132
:108982008AC1880FA216099F439EFEC5E82E00EBFE
:1089920089E82900B008EBF48AC72AC67401C38AA1
:1089A200C32AC2C38A078BEC875E003A079F439EA5
:1089B2008BEC875E007503E90302E92FFC9F86E0DA
:1089C2005086E0A08F080AC07403E90F0F5886E0B2
:1089D2009E519F86E05086E03C20721AA08C088A45
:1089E200E8A0F508FEC57409FECD3AC57503E85244
:1089F20005FEC0A2F5085886E09E59E841F6C3E894
:108A02000EF6247F3C0F7401C3A08F08F6D0A28F0C
:108A12000832C0C3E8BA027401C359E818FD51E82C
:108A220065005B8A0F438A2F438AC50AC17503E931
:108A320017FCE85D00E8BC0151E807058A179F436F
:108A42009E8A379F439E5387DAE8B417B0205BE8CB
:108A52006BFF8A070AC09F439E74C779F22C7F8AF4
:108A6200C8BA6E8387DA8A0787DA420AC079F5FEC6
:108A7200C975F1247FE845FF87DA8A0787DA9F42C2
:108A82009E0AC079EEEBCB538B1E9208891E90088A
:108A92005BC353528B1E9008BAFFFF13DA891E90F4
:108AA200085A5B7801C3538B1E9208891E9008E80E
:108AB2005EF53C0374035BEBD98B1E9208891E9012
:108AC20008E9BDF7B064A21509E846035953E81E48
:108AD20003891E1109BB020003DCE89CFA5A7519CE
:108AE20003D9524B8A374B8A174343538B1E1109C2
:108AF200E8A5FE5B75E45A8BE387DAB108E8BEFAB3
:108B0200538B1E11098BEC875E00538B1EA6088BBC
:108B1200EC875E00E87906E88AFEA6E86F0653E86D
:108B2200E9145B5152B900818AF18AD68A073CABBB
:108B3200B001750EE88600E8530653E8CD14E85AF2
:108B4200145B51529F86E05086E044538B1E1809F5
:108B52008BEC875E00B5815144E89800891E1809A4
:108B62008A073C3A74280AC07403E97FFA9F439E3D
:108B72008A079F439E0A077503E9B4009F439E8AB2
:108B8200179F439E8A3787DA891EA60887DAE82C60
:108B920000BA788B527501C32C807303E973023CCF
:108BA200257203E946FAD0C08AC8B50087DABB8DC0
:108BB2008403D98A0F9F439E8A2F5187DA438A07FB
:108BC2003C3A7201C33C2074F43C30F5FEC0FEC84E
:108BD200C387DA8B1EA808741187DAE8F30053E81A
:108BE20054FB8BD95A7203E9CA019F4B9E891E26F8
:108BF2000987DAC3E8ECF57501C3E813F43C1B748A
:108C0200173C0374133C137401C3E803F43C11755D
:108C120001C33C037407EBF2B0FFA297087401C3CF
:108C22000CC0EB037401C3891E1809EB020CFF5937
:108C32008B1EA6089F86E05086E08AC322C7FEC02C
:108C4200740C891E1C098B1E1809891E1E0932C04C
:108C5200A28F08E8DF025886E09EBB8D857403E987
:108C6200C7F9E9E4F98B1E1E098AC70AC3B2207547
:108C720003E992F987DA8B1E1C09891EA60887DA96
:108C8200C3E88D0F7401C3A28B08C3538B1E9408D3
:108C9200B5008AC803D9891E94085BC38A073C4180
:108CA2007301C33C5BF5C3E813FFE8E004E8EB1291
:108CB200781AA031093C907303E9EC13B98090BA99
:108CC200000053E890135B8AF17501C3B208E935DD
:108CD200F99F4B9EBA0000E8E3FE7201C3539F86E0
:108CE200E05086E0BB9819E8AEFC7303E9FDF88B0F
:108CF200DA03DA03DB03DA03DB5886E09E2C308AE0
:108D0200D0B60003DA87DA5BEBCD7503E977FAE8D0
:108D120098FF4BE8A7FE538B1EF90874195BE88392
:108D2200FC2C52E884FF4BE893FE7403E9BDF88BF8
:108D3200EC875E0087DA8AC32AC28AD08AC71AC63B
:108D42008AF07303E999F8538B1E2009B9280003AE
:108D5200D9E844FC7203E987F887DA891EA4085B24
:108D6200891EF9085BE91EFA7503E912FAE816FA98
:108D7200B9788BEB1AB103E844F85953538B1EA60A
:108D8200088BEC875E00B08C9F86E05086E04451F1
:108D9200E83EFFE85D00538B1EA608E8FAFB5B9FE6
:108DA200439E7303E893F97203E88AF98BD99F4BC8
:108DB2009E7301C3B20EE94DF87401C3B6FFE8B366
:108DC200F78BE33C8CB2047403E93AF85B891EA684
:108DD200089F439E8AC70AC3750AA016090AC0746F
:108DE20003E964F8BB788B8BEC875E00EB015BB127
:108DF2003AEB02B100B5008AC18ACD8AE88A070A35
:108E0200C07501C33AC57501C39F439E3C2274E7F6
:108E1200EBEBE84C06E88CFBB452A0F7089F86E027
:108E22005086E0E880035886E09E8BEC875E0089DE
:108E32001E1809D0D8E85D03743C538B1E2E0953CB
:108E420043438A17438A378B1EA808E84AFB7314E8
:108E52008B1EA408E841FB5A7313BB0909E838FBCF
:108E6200730BEB015AE8300C87DAE88909E8280C21
:108E72005BE8AE115BC353E8A5115A5BC3E8910DE1
:108E82008A078AE83C8C7407E819FB889F4B9E8A04
:108E9200CAFEC98AC57503E9FEFCE837FE3C2C749C
:108EA200F0C3EBEDE8FF028A073C887407E8F4FAA6
:108EB200A99F4B9EE8D902E8E1107503E934FFE867
:108EC200FBFC7303E9C9FEE9CBFC4BE8EFFC7473CE
:108ED2007501C33CA57503E9AA003CA87503E9A383
:108EE20000533C2C7503E982003C3B7503E9C30047
:108EF20059E8B20253A0F7080AC07531E80E13E828
:108F02002B09C607208B1E2E09FE078B1E2E09A0D9
:108F12008C088AE8FEC57410FEC5A0F5080207FE9B
:108F2200C83AC57203E81B00E8600932C07403E85E
:108F320059095BEB95A0F5080AC07507C3C607007F
:108F4200BBAA08B00DE875FAB00AE870FA32C0A2FE
:108F5200F508A08B08FEC87501C39F86E05086E025
:108F620032C0E858FA5886E09EEBEAA08D088AE8FB
:108F7200A0F5083AC57203E8C9FF73372C0E73FCDB
:108F8200F6D0EB229F86E05086E0E8810CE814FAE6
:108F9200299F4B9E5886E09E2CA8537403A0F50887
:108FA200F6D002C2730DFEC08AE8B020E80EFAFEC7
:108FB200CD75F95BE806FCE916FF3F5265646F2048
:108FC20066726F6D2073746172740D0A00A01709C6
:108FD2000AC07403E90DF659BBD98FE8AA08E9E380
:108FE200F7E8DA078A073C22B000A28F08750DE87D
:108FF2003E08E8AFF93B53E89108EB0153E8C9F7A3
:10900200597303E927FC9F439E8A070AC09F4B9E20
:10901200517503E9D8FDC6072CEB09538B1E2609AF
:109022000CAFEB0232C0A217098BEC875E00EB0497
:10903200E871F92CE82A048BEC875E00528A073C1F
:109042002C742AA017090AC07403E9A800B03FE8EB
:109052006BF9E874F75A597303E9D1FB9F439E8A6F
:10906200070AC09F4B9E517503E982FD52A0F70883
:109072000AC0742CE846FB8AF08AE83C227410A0ED
:1090820017090AC08AF07402B63AB52C9F4B9EE8C3
:10909200A20787DABBCE908BEC875E0052E99AFD7D
:1090A200E81AFBE896108BEC875E00E8710F5B4BC9
:1090B200E80AFB74073C2C7403E911FF8BEC875E12
:1090C200004BE8F8FA7403E966FF5AA017090AC0D0
:1090D20087DA7403E916FB520A07BB03917403E8AB
:1090E200A6075BC33F45787472612069676E6F7231
:1090F20065640D0A00E8F7FC0AC075239F439E8A47
:10910200079F439E0A07B2067503E9F9F49F439E3F
:109112008A179F439E8A3787DA891E130987DAE8FE
:109122009BFA3C8375CFE944FFBA00007403E83030
:1091320003891E1809E83CF47403E9B7F48BE3527F
:109142008A079F439E9F86E05086E052E8AA0E8BD4
:10915200EC875E0053E8F40A5BE8C30E5BE8AE0EF0
:1091620053E8F20E5B592AC5E8A30E740B87DA891D
:109172001EA6088BD9E9DDF98BE38B1E18098A0735
:109182003C2C7403E9D2F9E833FAE89FFFE81600B1
:109192000AC0EB01F9A0F70812C00AC07B01C3E9BB
:1091A20062F4E8FFF7289F4B9EB60052B101E80D2A
:1091B200F4E89B00891E1A098B1E1A09598AC53CBC
:1091C200787203E8CAFF8A07B6002CB3721C3C030C
:1091D20073183C01D0D032C63AC68AF07303E90B49
:1091E200F4891E0F09E8D5F9EBE08AC60AC07403B8
:1091F200E99F018A07891E0F092CAC7301C33C0742
:109202007201C38AD0A0F708FEC80AC28AC27503D7
:10921200E9E207D0C002C28AD0BBD78403DA8AC58A
:109222008A373AC67201C39F439EE863FF51B9D79A
:1092320091518AEA8ACEE8A70D8AD58AF18A0F9FD0
:10924200439E8A2F9F439E518B1E0F09E95CFF327A
:10925200C0A2F708E866F9B2247503E9A8F373031C
:10926200E9D90EE836FA735E3C267518E84EF93CE9
:10927200487503E91C143C427503E99914B202755E
:1092820003E982F33CAC74C73C2E7503E9AD0E3C96
:10929200AD74213C227503E996053CAA7503E99158
:1092A200013CA77503E9AE042CB67330E8F3FEE87F
:1092B200F2F629C3B67DE8F2FE8B1E1A0953E815B1
:1092C2000DE8CCFE5BC3E898015387DA891E2E09AC
:1092D200A0F7080AC07503E81F0D5BC3B500D0C034
:1092E2008AC851E8D7F88AC13C317224E8B3FEE853
:1092F200B2F62CE89EFE87DA8B1E2E098BEC875E77
:10930200005387DAE80A0987DA8BEC875E00EB0CF8
:10931200E899FF8BEC875E00BAE09252B93683037C
:10932200D98A0F9F439E8A3F8AD953C3FECE3CAD52
:109332007501C33C2D7501C3FEC63C2B7501C33CB0
:10934200AC7501C34BC30CAFEB0232C09F86E05039
:1093520086E0E83BFEE85AF95886E09E87DA598BA8
:10936200EC875E0087DAE8930C9F86E05086E0E89F
:1093720040F95886E09E598AC1BB2097750A22C2DD
:109382008AC88AC522C653C30AC28AC88AC50AC6FF
:1093920053C3BBCB93A0F708D0D88AC6D0D08AD00B
:1093A200B6648AC53AC67201C3E981FECD938AC109
:1093B2000AC0D0D8595A9F86E05086E0E8D6FDBB55
:1093C2004394537503E98E0C32C0A2F70852E89E0B
:1093D200068A079F439E9F439E8A0F9F439E8A2F22
:1093E2005A519F86E05086E0E88A06E8200C5886AB
:1093F200E09E8AF05B8AC20AC67501C38AC62C0146
:109402007301C332C03AC2FEC07201C3FECEFECAAD
:1094120087D98A0787D93A079F439E9F419E74D571
:10942200F5E98A0BFEC012C05922C504FF1AC0E931
:10943200870BB65AE874FDE856FDE875F88AC2F65D
:10944200D08AC88AC6F6D0E8B70259E96AFD4BE865
:109452006BF77501C3E84CF52CB96D94510CAFEB69
:109462000232C0A2F6088A2FE831F87303E97CF1D0
:1094720032C08AC8A2F708E843F77205E81DF872FD
:109482000C8AC8E837F772FBE811F873F62C2475DA
:109492000EFEC0A2F708D0C802C18AC8E81EF7A013
:1094A2001509FEC87503E9E60079098A072C2875B3
:1094B20003E99F0032C0A21509538AF58AD18B1E97
:1094C2002809E8D3F4BA2A097503E9C8098B1E22D0
:1094D2000987DA8B1E2009E8BEF474208AC12A07A4
:1094E2009F439E75048AC52A079F439E74559F43D6
:1094F2009E9F439E9F439E9F439EEBDB5B8BEC872D
:109502005E0052BAE892E88FF45A743B8BEC875EA5
:10951200005351B906008B1E24095303D95953E84D
:1095220080F05B891E24098BD9891E22099F4B9EDC
:10953200C60700E862F475F55A88179F439E88377C
:109542009F439E87DA5BC3A23109BB8685891E2EA3
:10955200095BC3538B1EF6088BEC875E008AF052C0
:1095620051E843F7595886E09E87DA8BEC875E0014
:109572005387DAFEC08AF08A073C2C74E2E824F4AE
:1095820029891E1A095B891EF608B20052EB07539D
:109592009F86E05086E08B1E2209EB0203DA87DA0F
:1095A2008B1E240987DAE8EFF3743D8A073AC19FDC
:1095B200439E75048A073AC59F439E8A179F439E1E
:1095C2008A379F439E75D5A0F6080AC07403E9271F
:1095D200F05886E09E8BCB7503E9B9082A0775031C
:1095E200E9AA00B210E91EF0BA04005886E09E759E
:1095F20003E9D8F6880F9F439E882F9F439E8AC80F
:10960200E8BBEF9F439E9F439E891E0F09880F9FD1
:10961200439EA0F608D0D08AC1B90B007304599FAB
:10962200419E880F9F439E882F9F439E9F86E050B6
:1096320086E053E8DF0A87DA5B5886E09EFEC8754B
:10964200D89F86E05086E08BCA87DA03DA7303E993
:109652008EEFE876EF891E24099F4B9EC60700E82D
:1096620036F375F59F419E8AF08B1E0F098A178784
:10967200DA03DB03D987DA9F4B9E9F4B9E88179FA5
:10968200439E88379F439E5886E09E72438AE88AAB
:10969200C88A079F439EEB015B8A179F439E8A37C6
:1096A2009F439E8BEC875E009F86E05086E0E8E752
:1096B200F27203E92DFF53E85B0A5A03DA5886E097
:1096C2009EFEC88BCB75D103DB03DB5903D987DA46
:1096D2008B1E1A09C38B1E240987DABB000003DC28
:1096E200A0F7080AC07410E88503E80B028B1EA4D9
:1096F2000887DA8B1E0D098AC32AC28AC88AC71A4A
:10970200C68AE98AF5B200BBF7088817B590E9ADB9
:1097120008A0F5088AE832C0EBE9E8B600E89E0046
:10972200B90E8E5152E87CF228E835FD5387DA9F54
:109732004B9E8A379F4B9E8A175BE853FAE864F286
:1097420029E860F2B48BCB8BEC875E00880F9F43D5
:109752009E882FE9CB00E87A0052E84FFBE830FA06
:109762008BEC875E008A179F439E8A379F439E8AAF
:10977200C60AC27503E984EE8A079F439E8A3F8A1E
:10978200D8538B1E28098BEC875E00891E28098B13
:109792001E2C09538B1E2A0953BB2A0952E87F0843
:1097A2005BE8E9F94BE815F47403E93FEE5B891EC7
:1097B2002A095B891E2C095B891E28095BC3538B0E
:1097C2001EA6089F439E8AC70AC35B7401C3B216D2
:1097D200E933EEE8CEF1A7B080A215090A078AE8BC
:1097E200E885FCE9AAF9E8A7F9E8210AE83E00E8D9
:1097F2007D02B9099B518A079F439E9F439E53E86E
:10980200AB005B8A0F9F439E8A2FE80B00538AD8D6
:10981200E842025AC3E89500BB09095388079F43EF
:109822009E9F439E88179F439E88375BC39F4B9E94
:10983200B5228AF553B1FF9F439E8A07FEC10AC033
:1098420074083AC674043AC575ED3C227503E86C97
:10985200F38BEC875E009F439E87DA8AC1E8B8FFEC
:10986200BA09098B1EFB08891E2E09B001A2F7084E
:10987200E8AF07E822F1891EFB085B8A077401C37F
:10988200B21EE981ED9F439EE8A2FFE8E101E87D77
:1098920007FEC2FECA7501C387D98A0787D9E81CA9
:1098A200F13C0D7503E8A5F69F419EEBE60AC0EB7D
:1098B200045886E09E9F86E05086E08B1EA40887AF
:1098C200DA8B1E0D09F6D08AC8B5FF03D943E8C763
:1098D200F0720E891E0D099F439E87DA5886E09E1C
:1098E200C35886E09EB21A7503E91AED3AC09F8604
:1098F200E05086E0B9D098518B1EF908891E0D09F7
:10990200BB0000538B1EA40853BBFD0887DA8B1ED5
:10991200FB0887DAE881F0B92B9975568B1E20096E
:1099220087DA8B1E220987DAE86DF0740C8A074306
:10993200430AC0E83F00EBE85987DA8B1E24098707
:10994200DAE854F0746FE8C5068AC25303D90AC034
:1099520079E6891E0F095B8A0FB50003D903D99FE7
:10996200439E87DA8B1E0F0987DAE82BF074CAB997
:109972008199510C808A079F43438A17438A374350
:109982009E7801C30AC07501C38BCB8B1E0D09E8FB
:1099920006F08BD97301C35B8BEC875E00E8F8EFAE
:1099A2008BEC875E00538BD97201C359585886E0FD
:1099B2009E535251C35A5B8AC30AC77501C39F4B58
:1099C2009E8A2F9F4B9E8A0F539F4B9E9F4B9E8A30
:1099D2001FB70003D98AF58AD19F4B9E8BCB8B1E72
:1099E2000D09E8C0EB5B880F9F439E882F8BD99FA0
:1099F2004B9EE907FF51538B1E2E098BEC875E00AD
:109A0200E84CF88BEC875E00E889F78A07538B1ED7
:109A12002E09530207B21C7303E9EAEBE8F6FD5A7A
:109A2200E852008BEC875E00E84800538B1E0B095E
:109A320087DAE80F00E80C00BBD3918BEC875E005D
:109A420053E91CFE5B8BEC875E008A0743438A0F57
:109A5200438A2F8AD8FEC3FECB7501C387D98A07F2
:109A620087D987DA880787DA4142EBEBE825F78B5B
:109A72001E2E0987DAE8200087DA7401C3528AF5BC
:109A82008AD14A8A0F8B1E0D09E80CEF75088AE805
:109A920003D9891E0D095BC38B1EFB084B8A2F4B12
:109AA2008A0F4B4BE8F1EE7401C3891EFB08C3B960
:109AB200339751E8B6FF32C08AF0A2F7088A070A44
:109AC200C0C3B9339751E8EAFF7503E9FEF1434396
:109AD2008A17438A3787DA8A0787DAC3B001E834FC
:109AE200FDE830018B1E0B09881759E972FDE8CD9C
:109AF2000032C08BEC875E008AC8538A073AC5726F
:109B0200048AC5EB02B10051E8A2FD595B534343FD
:109B12008A2F438A3F8ADDB50003D98BCBE8F8FC54
:109B22008AD8E830FF5AE84CFFE934FDE88F005A42
:109B32005287DA8A0787DA2AC5EBB887DA8A07E812
:109B42008200FEC5FECD7503E981F151B2FF3C29C9
:109B52007407E84FEE2CE8B800E848EE295886E092
:109B62008BEC875E00B9199B51FEC83A07B50072AB
:109B720001C38AC88A072AC13AC28AE87301C38A22
:109B8200EAC3E82EFF7503E96E018AD043438A07D0
:109B9200438A3F8AD85303DA8A2F88378BEC875E51
:109BA20000518A073C247505E8E70AEB0C3C257551
:109BB20005E8620BEB03E88305595B882FC387DA5C
:109BC200E8E1ED29595A518AEAC3E84700A2890817
:109BD200E8966CE93EFBE82600E9506CE820009F1D
:109BE20086E05086E0B2004BE8D2EF7407E8B4EDAD
:109BF2002CE81D0059E8716C32C222C574F7C3E823
:109C02000F00A28908A24C08E899ED2CEB03E8ACFE
:109C1200EFE879F5E896F08AC60AC07403E9ACF079
:109C22004BE899EF8AC2C3E888F087DA8A0787DAB5
:109C3200E9E1FAE857F5E879F052E867ED2CE8D067
:109C4200FF5A87DA880787DAC3BB66A3E8BF03EB4C
:109C52000AE8BA03EB02595AE87B038AC50AC075BF
:109C620001C3A031090AC07503E990032AC5731024
:109C7200F6D0FEC087DAE8670387DAE87E03595A2E
:109C82003C197201C39F86E05086E0E8A5038AF87A
:109C92005886E09EE801010AC7BB2E097919E8BA85
:109CA200007203E980009F439EFE077503E950E9B5
:109CB200B301E80001EB6F32C02AC58AE88A071AAD
:109CC200C28AD09F439E8A071AC68AF09F439E8A01
:109CD200071AC18AC87303E89A008ADD8AFA32C079
:109CE2008AE88AC10AC075268ACE8AF78AFB8AD890
:109CF2008AC52C083CE075E832C0A23109C3FECD0A
:109D020003DB8AC6D0D08AF08AC112C08AC879EE33
:109D12008AC58AD78AEB0AC0740CBB31090207884C
:109D22000773D57501C38AC5BB31090AC07903E837
:109D320010008A2F9F439E8A07248032C18AC8E975
:109D4200BA02FEC27401C3FEC67401C3FEC174012D
:109D5200C3B180FE077401C3E9A5E88A0702C28A7B
:109D6200D09F439E8A0712C68AF09F439E8A07129B
:109D7200C18AC8C3BB32098A07F6D0880732C08AB3
:109D8200D82AC58AE88AC31AC28AD08AC31AC68A5E
:109D9200F08AC31AC18AC8C3B5002C08720A8AEABB
:109DA2008AD68AF1B100EBF204098AD832C0FECB1E
:109DB2007501C38AC1D0D88AC88AC6D0D88AF08A27
:109DC200C2D0D88AD08AC5D0D88AE8EBDF0000009A
:109DD2008103AA561980F122768045AA3882E8BA10
:109DE200010AC07B03E9E4EEBB31098A07B9358079
:109DF200BAF3042AC59F86E05086E0882F5251E8C4
:109E020059FE595AFEC5E8A500BBEC9DE842FEBBCF
:109E1200F09DE82506B98080BA0000E83DFE58862C
:109E2200E09EE8B503B93180BA1872EB02595AE8DC
:109E320069017501C3B300E804018AC1A240098720
:109E4200DA891E4109B900008AF58AD5BBF99C530B
:109E5200BB779E5353BB2E098A07430AC0743853FB
:109E6200B308D0D88AF88AC1730F538B1E410903F5
:109E7200DA87DA5BA0400912C1D0D88AC88AC6D074
:109E8200D88AF08AC2D0D88AD08AC5D0D88AE8FEC9
:109E9200CB8AC775CD5BC38AEA8AD68AF18AC8C3E0
:109EA200E83D01B92084BA0000E85001595AE8EAB5
:109EB200007503E93AE7B3FFE88300FE07FE074BAC
:109EC2008A07A25B084B8A07A255084B8A07A24F52
:109ED200088AE987DA32C08AC88AF08AD0A25F0883
:109EE20053518AC3E848691C00F5730BA25F0858F6
:109EF2005886E09EF9EB02595B8AC1FEC0FEC8D0CB
:109F0200D87903E922FED0D08AC2D0D08AD08AC6BC
:109F1200D0D08AF08AC1D0D08AC803DB8AC5D0D01B
:109F22008AE8A05F08D0D0A25F088AC10AC60AC226
:109F320075AE53BB3109FE0F5B75A5E9C2E68AC552
:109F42000AC0742D8AC3BB3109320702C58AE8D020
:109F5200D832C58AC57918048088077503E935FFA8
:109F6200E8D00088079F4B9EC3E82F00F6D05B0A1B
:109F7200C05B7803E981FDE986E6E88E008AC50ABE
:109F8200C07501C304027303E975E68AE8E8CBFCF5
:109F9200BB3109FE077401C3E965E6A031090AC0B5
:109FA2007501C3A030093C2FEB02F6D0D0D01AC005
:109FB2007401C3FEC0C3E8E2FFB588BA0000BB313A
:109FC200098AC8882FB50043C60780D0D0E905FDAD
:109FD200E8C8FF7801C3BB30098A0734808807C309
:109FE20087DA8B1E2E098BEC875E00538B1E30099D
:109FF2008BEC875E005387DAC3E8120087DA891E8A
:10A002002E098BD9891E300987DAC3BB2E098A171C
:10A012009F438A37438A0F439E8A2F9F439EC3BA28
:10A022002E09B50487DA8A0787DA88074243FECD0C
:10A0320075F2C3BB30098A07D0C0F9D0D88807F5BA
:10A04200D0D89F43439E88078AC1D0C0F9D0D88A0E
:10A05200C8D0D83207C38AC50AC07503E93CFFBB22
:10A06200C99F53E835FF8AC17501C3BB3009320766
:10A072008AC17901C3E80500D0D832C1C39F439E8B
:10A082008AC53A077401C39F4B9E8AC13A0774017D
:10A09200C39F4B9E8AC63A077401C39F4B9E8AC2D6
:10A0A2002A077401C35B5BC38AE88AC88AF08AD034
:10A0B2000AC07501C353E852FFE877FF32078AF8F6
:10A0C2007903E81900B0982AC5E8CCFC8AC7D0D039
:10A0D2007303E86DFCB5007303E898FC5BC34A8A1E
:10A0E200C622C2FEC07401C39F499EC3BB31098A06
:10A0F200073C98A02E097201C38A07E8AAFFC60787
:10A10200988AC29F86E05086E08AC1D0D0E8C5FB1B
:10A112005886E09EC3BB00008AC50AC17501C3B060
:10A122001003DB7303E9BBF487DA03DB87DA730717
:10A1320003D97303E9ACF4FEC875E6C33C2D9F86D0
:10A14200E05086E074073C2B74039F4B9EE8A8FB0B
:10A152008AE88AF08AD0F6D08AC8E860EA725E3C61
:10A162002E741B3C45751BE853EAE8BFF1E84DEA43
:10A172007273FEC6750C32C02AC28AD0FEC1FEC1FD
:10A1820074D8538AC22AC57803E82000790F9F86C3
:10A19200E05086E0E809FD5886E09EFEC075E85A68
:10A1A2005886E09E7503E82DFE87DAC37501C386E3
:10A1B200E05086E0E8C3FD5886E0FEC8C3528AF04C
:10A1C2008AC512C18AE8515352E8AEFD5886E09E14
:10A1D2002C30E805005B595AEB80E803FEE8D9FD14
:10A1E200595AE976FA8AC2D0C0D0C002C2D0C0029F
:10A1F200072C308AD0E975FF53BB8285E889F65B6C
:10A2020087DA32C0B598E8B5FDBBA49853BB3309D1
:10A2120053E887FDC607207903C6072D9F439EC6D4
:10A2220007307503E90101537903E8A9FD32C09FA4
:10A2320086E05086E0E8FC00B94391BAF84FE81591
:10A24200FE0AC07B215886E09EE863FF9F86E050AD
:10A2520086E0EBE4E849FC5886E09EFEC09F86E07B
:10A262005086E0E8CE00E8E0F9FEC0E83AFEE88B6E
:10A27200FDB906035886E09E02C1FEC0780A3C087A
:10A282007306FEC08AE8B002FEC8FEC85B9F86E085
:10A292005086E0BA6AA3FECD750CC6072E9F439E78
:10A2A200C607309F439EFECDC6072E7503E86BFDA1
:10A2B200515352E855FD5BB52FFEC58AC22A078A63
:10A2C200D09F439E8AC61A078AF09F439E8AC11A6C
:10A2D200078AC89F4B4B9E73E0E87FFA9F439EE834
:10A2E2001AFD87DA5B882F9F439E59FEC975B7FE18
:10A2F200CD740E4B8A073C3074F93C2E7403E81A75
:10A30200FD5886E09E7429C607459F439EC6072BCB
:10A312007907C6072DF6D0FEC0B52FFEC52C0A73ED
:10A32200FA043A9F439E882F9F439E88079F439E2D
:10A33200880F5BC3B97494BAF723E819FD0AC05BAE
:10A342007A03E90FFF53C300000080A086011027A3
:10A3520000E803006400000A0000010000BBF59F52
:10A362008BEC875E0053C3E876FCBB66A3E889FCEE
:10A37200595AE826FC8AC5744E79070AC07503E962
:10A382006EE20AC07503E971F952518AC10C7FE885
:10A3920079FC79155251E853FD595A9F86E050864F
:10A3A200E0E8B2FC5B8AC7D0D85B891E30095B89C2
:10A3B2001E2E097303E8A5FF7503E819FC5251E844
:10A3C2001CFA595AE868FAE816FCB93881BA3BAA6D
:10A3D200E85CFAA031093C887203E98CFBE80CFDC9
:10A3E200048004027303E980FB9F86E05086E0BB91
:10A3F200EC9DE857F8E82DFA5886E09E595A9F8658
:10A40200E05086E0E851F8E8CCFBBB38A4E839001C
:10A41200BA0000598ACEE916FA08402E9474704F99
:10A422002E776E02887AE6A02A7C50AAAA7EFFFFC7
:10A432007F7F0000808100000081E8A3FBBA4C9E70
:10A442005253E8C6FBE8E7F95BE894FB8A079F43AF
:10A452009EE8A5FBEB035886E0595AFEC87501C376
:10A46200525186E05086E053E8C4F95BE89FFB5303
:10A47200E8E8F75BEBE0E822FBBB68087871BB8495
:10A4820008E875FBBB68087501C302072407B5001D
:10A4920088074302C002C08AC803D9E870FBE88E6D
:10A4A200F9A06708FEC02403B5003C0112C5A267EB
:10A4B20008BB14A502C002C08AC803D9E88DF7E818
:10A4C20049FB8AC28AD1344F8AC8C607804B8A2F79
:10A4D200C60780BB6608FE078A072CAB750888078B
:10A4E200FEC1FECEFEC2E8F1F7BB8408E930FB886C
:10A4F200074B88074B8807EBC668B1466899E99213
:10A502006910D17568BB7AA5E841F7E8D2FAB94972
:10A5120083BADB0FE8E5FA595AE892F9E8C1FAE89A
:10A52200CAFB595AE831F7BB7EA5E824F7E86BFA73
:10A53200F97908E813F7E862FA0AC09F86E05086C4
:10A54200E07803E890FABB7EA5E800F75886E09E23
:10A552007203E881FABB82A5E9DFFEDB0F498100C5
:10A5620000007F05BAD71E86642699875834238750
:10A57200E05DA586DA0F4983E865FAE88DFF595B4D
:10A58200E85DFA87DAE874FAE87AFFE91EF9E80A80
:10A59200FA7903E8C7FD7903E83BFAA031093C8167
:10A5A200720EB900818AF18AD1E802F9BB709C531C
:10A5B200BBD9A5E884FEBB7AA5C3094AD73B78027A
:10A5C2006E847BFEC12F7C74319A7D843D5A7DC896
:10A5D2007F917EE4BB4C7E6CAAAA7F00000081C3FF
:10A5E200B00CE95ADAE829F68AC2A28C08C3E89CC0
:10A5F200EBE8BEE68916900889169208C3E8B2E62F
:10A60200525B8A2F438A07E9F9F0E880EBE8A2E679
:10A6120052E890E32CE875EBE897E68BEC875E0056
:10A6220088174388375BC3E866EBE885E651BB339E
:10A63200098AC63C00740FE833008AC53C307403B3
:10A64200882F43880F438AC2E822008AC63C0075DD
:10A65200068AC53C307405882F9F439E880F43327B
:10A66200C0880743880759BB3309E97FF18AE82488
:10A672000F3C0A7202040704308AC88AC5D0C8D0C7
:10A68200C8D0C8D0C8240F3C0A7202040704308A1A
:10A69200E8C387DABB0000E817007240EB05E81058
:10A6A20000722D03DB03DB03DB03DB0AC38AD8EB77
:10A6B200ED4287DA8A0787DA3C2074F52C30730181
:10A6C200C33C0A72072C073C0A7301C33C10F5C352
:10A6D20087DA8AC68ACA53E827F05BC3B226E9251D
:10A6E200DFE8ACEAE8CBE551BB3309B511FECD8A10
:10A6F200C53C017406D1D273F4EB02D1D2B030144E
:10A7020000880743FECD75F332C088074388075996
:10A71200BB3309E9D6F087DABB0000E81B00722DD3
:10A722002C3003DB0AC38AD8E80E0073F387DA8A77
:10A73200C68ACA53E8CAEF5BC34287DA8A0787DA56
:10A742003C2074F53C307301C33C32F5C3B228E9B6
:10A75200B4DEE99FDAFAE98818B000A29708E99B0B
:10A76200DA86E05086E022C5593AC5B000C3E84C0B
:10A77200E2E9CFE7FFFFFFFFFFFFFFFFFFFFFFFF62
:10A78200FF000000000000000000000000000000C8
:10A7920000000000000000000000000000000000B7
:10A7A20000000000000000000000000000000000A7
:10A7B2000000000000000000000000000000000097
:10A7C2000000000000000000000000000000000087
:10BFE20000B800008ED88ED0BC0010E8E008B8007F
:10BFF20000A3180FB80004A31A0FA3200FA3220F47
:10C00200B049A2240F32C0A2250F33C0BB280FB9FA
:10C012000E00890743434975F9B80000A33E0FA3F8
:10C02200400FB80010A3320F33C08EC0BECBC68BF8
:10C03200F8B900022E8B0446462689054747497403
:10C042001A81FEDFC675EDB868C6BB00F026890509
:10C05200474726891D4747494975F2BB69C6E853D8
:10C06200049C588BC825FF0F509D9C582500F03D1D
:10C0720000F0751D545A3BD47432B80001D5000A41
:10C08200C07507B011BBDFC6EB27B014BBF9C6EB16
:10C092002081C900F0519D9C582500F07507B031F0
:10C0A200BB03C7EB0CB071BB0BC7EB0532C0BB13B4
:10C0B200C7A2250FE8FD03BB84C6E8F703E86604C0
:10C0C200BB000FE8AF04E8B60422C074EA3C447532
:10C0D20002EB2B3C477503E947013C537503E9A288
:10C0E200013C4C7503E928023C527503E918033CF4
:10C0F200427503E96CBFBBA1C6E8B803EBB943E8DC
:10C102007304E885040AC97515E869040AC075E66E
:10C112008B161A0F81C2800089161C0FEB438A0707
:10C122003C3A750C8916180F43E85E040AC974C6B6
:10C1320089161A0F8A073C2C740E0AC075B881C280
:10C14200800089161C0FEB1943E82904E83B04E838
:10C1520023040AC974A08A070AC0759A4289161C68
:10C162000F8E06180F8B361A0F83E6F032C0A21E0E
:10C172000FE82300E883070AC07512A01E0F3C02D5
:10C1820072EF8B1E1C0F891E1A0FE92AFF89361ABD
:10C192000FE85D07E920FFA1180FE83203B03AE883
:10C1A2005D078BC6E82803BBA9C6E80703BF000FDB
:10C1B200B91000E82800E2FBBBACC6E8F602BF00FB
:10C1C2000FB910008A05473C2072093C7F7305E8CD
:10C1D2002D07EB05B02EE82607E2E9E93E03B02081
:10C1E200E81C07A01E0F0AC0751A3B361A0F740FFF
:10C1F200B0208805E80807B020E803074647C3B027
:10C2020001A21E0FA01E0F3C0175E5268A048805B7
:10C21200E8C30246473B361C0F7505B002A21E0F4B
:10C22200C343E85003E862030AC974168A073C3A1A
:10C23200750C89163C0F43E850030AC974428916EB
:10C242003A0F8A070AC075388E16400F8B26320FB6
:10C25200A1300F50A13C0F50A13A0F50A1280F8BD3
:10C262001E2A0F8B0E2C0F8B162E0F8B2E340F8B3C
:10C2720036360F8B3E380F8E06420F8E1E3E0FCF84
:10C28200E973FE43E8EE02E800030AC9741F8A0755
:10C292003C3A750C8916180F43E8EE020AC974E09D
:10C2A2008916220FE8CE028A070AC075D3A1180F99
:10C2B2008EC0E81A02B03AE845068B36220F8BC6CA
:10C2C200E80C02BBACC6E8EB01268A04E80702B020
:10C2D20020E82B06E84F02BB000FE898028A070A03
:10C2E200C07507468936220FEBC33C2D75074E8970
:10C2F20036220FEBB83C2E7503E9BBFDE88B020A30
:10C30200C9740A268814468936220FEBA0E9E6FD95
:10C3120043E86102E873020AC974148A073C3A7559
:10C32200108916180F43E861020AC9742BEB023315
:10C33200D28A070AC075218BF28E06180FE8B10562
:10C34200E83C023C5374683C3A74103C0D74EE3C79
:10C352000A74EAE89B05EBF3E99BFDE892018AC8BF
:10C362008AD8E88B018AF002C8E884018AD002C820
:10C372008BFA03FEE87901A2260F02C80ADB7415C4
:10C38200E86D0102C88A3E260F0AFF750426880559
:10C3920047FECB75EBE8580102C1750AA0260F0AC9
:10C3A200C074A8E911FDBB87C6E80801E908FDE8E9
:10C3B2003F05A2260FE838018AD88AC8E831018AE7
:10C3C200F002C8E82A018AD002C88BFA03FE80EB89
:10C3D20003722B7416E8180102C88A3E260F80FFEA
:10C3E20031750426880547FECB75EAE8020102C1D1
:10C3F2003CFF750AA0260F3C397409E94DFFBB9436
:10C40200C6E8B000E9B0FC43E86A01E871010AC07D
:10C412007506E88200E99FFCBECEC72E3A04740D71
:10C422002E8A4C010AC9746C83C606EBEE2E8A442E
:10C43200013C0F750C2E8B7402438A07E84001EB16
:10C44200DA0AC0744F2E8A4C012E8B5C04E8640019
:10C45200B03DE8AA042E8B5C0280E107535180F9BB
:10C462000175078A07E86E00EB058B07E86000B0EC
:10C4720020E88B04E8AF00BB000FE8F800E80A01EF
:10C482000AC9740D595B80F90175048817EB02899A
:10C4920017E923FCE95FFCBE4CC72E8B1C0BDB7437
:10C4A20011E8100046462E8B1C8B07E821004646F9
:10C4B200EBE8EB682E8A0722C07406E8410443EBDE
:10C4C200F3C38A0722C07406E8340443EBF4C35072
:10C4D2008AC4E801005850D0E8D0E8D0E8D0E8E8B3
:10C4E200010058240F04303C3A72020407E90F0499
:10C4F20032C0E80800D0E0D0E0D0E0D0E08AE8E83E
:10C50200EF03E87A003C3072123C3A720A3C417204
:10C512000A3C4773062C072C300AC5C3B00DE8DE6F
:10C5220003B00AE9D903BB000F32C9E8C3033C0DCB
:10C53200743B3C0A74373C08741B3C7F74173C20E4
:10C5420072E93C8073E580F91773E08807E8AF036E
:10C5520043FEC1EBD622C974D24BFEC9B008E89E95
:10C5620003B020E89903B008E89403EBBEE8ACFFFF
:10C57200B0008807C38A073C20750343EBF7C33C2E
:10C582006172063C7B730204E0C332C933D28A076C
:10C59200E8ECFF3C30721F3C3A720A3C4172173C95
:10C5A2004773132C072C30D1E2D1E2D1E2D1E20A57
:10C5B200D043FEC1EBD8C3501EB800008ED8891EEE
:10C5C2002A0F890E2C0FBB1DC733C9EB41501EB871
:10C5D20000008ED8891E2A0F890E2C0FBB2CC73360
:10C5E200C9EB2B501EB800008ED8891E2A0F890E67
:10C5F2002C0FBB39C7B90100EB14501EB800008ED6
:10C60200D8891E2A0F890E2C0FBB41C733C958A3E4
:10C612003E0F58A3280F89162E0F892E340F893604
:10C62200360F893E380F8C06420F582BC1A33A0FA2
:10C6320058A33C0F58A3300F8926320F8C16400F97
:10C64200E871FEE851FEE96EFACF0D0A556E697681
:10C65200657273616C204D6F6E69746F7220383031
:10C6620038360D0A005D20004572726F72206968CB
:10C6720065780D0A004572726F7220737265630DE0
:10C682000A004572726F720D0A00203A00203A20A9
:10C69200003A303030303030303146460D0A0053E7
:10C6A2003930333030303046430D0A00D6C500F001
:10C6B200ECC500F068C600F002C600F019C600F032
:10C6C200383038362F383038380D0A0038303138A3
:10C6D200362F38303138380D0A005633302F563263
:10C6E200300D0A0038303238360D0A00383033380F
:10C6F200360D0A00556E6B6E6F776E0D0A00446937
:10C7020076696465206572726F720D0A00537465F2
:10C71200700D0A004E4D490D0A00427265616B0DA3
:10C722000A004F766572666C6F770D0A0088C7281B
:10C732000F8CC72A0F91C72C0F96C72E0F9BC7309D
:10C742000F9FC73C0FA5C73E0FAAC7400FAFC742F6
:10C752000FB4C7320FBAC7340FBFC7360FC4C738BA
:10C762000FC9C73A0F0000000041583D002042584F
:10C772003D002043583D002044583D0020463D00E6
:10C78200202043533D002044533D002053533D009D
:10C792002045533D000D0A53503D002042503D00BC
:10C7A2002053493D002044493D002049503D00416D
:10C7B2000F04C80000420F1CC80000430F3AC80013
:10C7C20000440F58C80000450F58C8000046023008
:10C7D2000FDFC8490F88C80000530F94C80000003B
:10C7E20000000000005802280FACC84801290FAF12
:10C7F200C84C01280FB2C800000000000058022AED
:10C802000FB5C848012B0FB8C84C012A0FBBC8503E
:10C8120002340FBEC800000000000058022C0FC1F5
:10C82200C848012D0FC4C84C012C0FC7C853023C85
:10C832000FCAC800000000000058022E0FCDC848E1
:10C84200012F0FD0C84C012E0FD3C84902380FD682
:10C85200C853023E0FD9C800000000000053024234
:10C862000FDCC800000000000050023A0FE1C800CF
:10C8720000000000004902360FE4C85002320FE700
:10C88200C85302400FEAC8000000000000415800EF
:10C89200414800414C00425800424800424C00428C
:10C8A2005000435800434800434C0043530044584F
:10C8B20000444800444C004449004453004553009E
:10C8C2004600495000534900535000535300B000F2
:10C8D200E6019090B000E6019090B000E6019090E1
:10C8E200B040E6019090B04EE6019090B037E6017C
:10C8F200C3E401240274FAE400C3E4012402C35035
:10C90200E401240174FA58E600C3FFFFFFFFFFFFB2
:10C91200FFFFFFFFFFFFFFFFFFFFFFFFFFFFFFFF25
:10C92200FFFFFFFFFFFFFFFFFFFFFFFFFFFFFFFF15
:10C93200FFFFFFFFFFFFFFFFFFFFFFFFFFFFFFFF05
:10C94200FFFFFFFFFFFFFFFFFFFFFFFFFFFFFFFFF5
:10FFD200FFEA00C000F0FFFFFFFFFFFFFFFFFFFF90
:10FFE200FF0D0A4D455A5632302025322E33664DCA
:0EFFF200487A0D0A00696E66006E616E0000AE
:020000040001F9
:10000000000E816F57C584F558C585F559C586F52D
:100010005AC587F587AF14D0010E816F84C501F5ED
:1000200085C502F586C503F587C504F5D4EC8FF0C8
:1000300001C584F502C585F503C586F504C587F5B8
:10004000000E836F000E826FB9C571F5BAC572F5E7
:100050008151D8B40DD08151D8A404D0000E676F5F
:100060002B0E03D0000E676F2D0E666F66C581F5EF
:1000700084C501F585C502F586C503F587C504F578
:10008000F1EC8CF001040210D8A42CD005018151B0
:10009000D8B409D081C500F67107D8A07207000E48
:1000A000836F010E826F000E8225016E060E832182
:1000B000026EF70E036EFF0E046E9BEC8FF0FD0ECA
:1000C0007127FF0E722355C512F556C513F5000EA4
:1000D000146E060E156E71C516F572C517F5A5ECF2
:1000E0008EF0120084C501F585C502F586C503F5BD
:1000F00087C504F5F1EC8CF001500210D8A42CD087
:1001000005018151D8B409D081C500F67107D8A086
:100110007207000E836F010E826F000E8225016E42
:10012000060E8321026EFB0E036EFF0E046E9BEC27
:100130008FF0FD0E7127FF0E722355C512F556C5BF
:1001400013F5000E146E060E156E71C516F572C508
:1001500017F5A5EC8EF01200000E0501886F000E59
:10016000896F800E8A6F3F0E8B6F000E706F000ECE
:100170006F6F84C501F585C502F586C503F587C592
:1001800004F5000E056E000E066E000E076E000EE2
:10019000086E60EC8EF0D8A00CD0BED073C588F588
:1001A00074C589F575C58AF576C58BF505016F4B64
:1001B000702B88C50FF589C510F58AC511F58BC55B
:1001C00012F5000E136E000E146E200E156E410E09
:1001D000166E55EC84F00FC573F510C574F511C596
:1001E00075F512C576F505017351845D016E745184
:1001F0008559026E75518659036E76518759046E82
:10020000E5EC8EF004BECAD704500310021004E1DE
:10021000020E015CD8A0C2D773C528F574C529F5B4
:1002200075C52AF576C52BF584C52CF585C52DF544
:1002300086C52EF587C52FF589EC8CF0D8A0AED7F2
:1002400005018851845D016E89518559026E8A517C
:100250008659036E8B518759046EE5EC8EF004BE0F
:1002600008D004500310021043E1020E015CD8B024
:100270003FD088C584F589C585F58AC586F58BC5C7
:1002800087F54AD088C528F589C529F58AC52AF594
:100290008BC52BF5000E2C6E000E2D6E200E2E6ED3
:1002A000410E2F6EC3EC88F028C588F529C589F565
:1002B0002AC58AF52BC58BF505016F07D8A07007F5
:1002C0008851845D016E89518559026E8A51865923
:1002D000036E8B518759046EE5EC8EF004BEC9D7CE
:1002E00004500310021004E1020E015CD8A0C1D733
:1002F00084C528F585C529F586C52AF587C52BF55A
:1003000088C52CF589C52DF58AC52EF58BC52FF529
:1003100089EC8CF0D8A0B6D75BC569F569C56AF5DC
:100320000501BCBF05D0BBC562F5BCC563F504D0F3
:10033000000E636F060E626F62C56DF563C56EF5E4
:100340006D4B6E2B660E6A19D8A416D070AF0CD008
:10035000000E886F000E896F800E8A6F3F0E8B6FC4
:10036000000E706F000E6F6F670E6919D8B404D05D
:100370006F516D2770516E23000E786F000E776FEE
:1003800084C579F585C57AF586C57BF587C57CF585
:1003900088C573F589C574F58AC575F58BC576F57D
:1003A0007BD079C528F57AC529F57BC52AF57CC5AA
:1003B0002BF588C52CF589C52DF58AC52EF58BC57D
:1003C0002FF5C3EC88F028C541F529C542F52AC5AB
:1003D00043F52BC544F515EC8BF041C57DF542C5C1
:1003E0007EF543C57FF544C580F57DC501F57EC525
:1003F00002F57FC503F580C504F557EC8DF001C506
:100400006BF502C56CF579C528F57AC529F57BC56C
:100410002AF57CC52BF57DC513F57EC514F57FC582
:1004200015F580C516F588C50FF589C510F58AC57F
:1004300011F58BC512F555EC84F00FC52CF510C5E0
:100440002DF511C52EF512C52FF536EC8FF028C508
:1004500079F529C57AF52AC57BF52BC57CF588C5C4
:1004600028F589C529F58AC52AF58BC52BF5000E17
:100470002C6E000E2D6E200E2E6E410E2F6EC3ECD4
:1004800088F028C588F529C589F52AC58AF52BC5C0
:100490008BF50501774B782B6D51775D7851800A8C
:1004A0005C6E6E51800A5C58D8A07BD788C50FF56A
:1004B00089C510F58AC511F58BC512F5000E136EAE
:1004C000000E146EA00E156E400E166E55EC84F0E4
:1004D0000FC57DF510C57EF511C57FF512C580F5F8
:1004E00079C528F57AC529F57BC52AF57CC52BF594
:1004F0007DC52CF57EC52DF57FC52EF580C52FF564
:1005000089EC8CF0D8B003D0000E050118D079C565
:1005100001F57AC502F57BC503F57CC504F57DC5FB
:1005200005F57EC506F57FC507F580C508F560ECC5
:100530008EF0D8A00BD005016BB108D0000E7D6FF6
:10054000000E7E6F000E7F6F000E806F84C501F578
:1005500085C502F586C503F587C504F57DC505F596
:100560007EC506F57FC507F580C508F5EBEC85F07F
:1005700001C579F502C57AF503C57BF504C57CF59F
:1005800079C528F57AC529F57BC52AF57CC52BF5F3
:10059000000E136E000E146E200E156E410E166EB8
:1005A00073C50FF574C510F575C511F576C512F54F
:1005B00055EC84F00FC52CF510C52DF511C52EF5A1
:1005C00012C52FF589EC8CF0D8A024D005016F4B13
:1005D000702B73C50FF574C510F575C511F576C58B
:1005E00012F5000E136E000E146E200E156E410EE5
:1005F000166E55EC84F00FC573F510C574F511C572
:1006000075F512C576F5660E05016A19D8A402D0F3
:100610006D4B6E2B73C588F574C589F575C58AF564
:1006200076C58BF56FC560F570C561F5000E0501E7
:10063000686F000E656F000E646F000E786F000E1D
:10064000776FCDD079C528F57AC529F57BC52AF510
:100650007CC52BF588C52CF589C52DF58AC52EF5E9
:100660008BC52FF5C3EC88F028C541F529C542F5A7
:100670002AC543F52BC544F515EC8BF041C57DF536
:1006800042C57EF543C57FF544C580F57DC501F5BE
:100690007EC502F57FC503F580C504F557EC8DF0E6
:1006A00002BE06D0025013E10A0E015CD8B00FD092
:1006B0007DC501F57EC502F57FC503F580C504F54E
:1006C00057EC8DF001C56BF502C56CF505D0000E39
:1006D00005016C6F090E6B6F05016851D8B461AFED
:1006E00020D0000E8225D96E060E8321DA6E2E0EE2
:1006F000DF6E824B832B7107D8A07207010E686FE3
:1007000010D0000E8225D96E060E8321DA6E300ECF
:10071000DF6E824B832B7107D8A072076407D8A0C5
:10072000650764516511D8A4ECD7000E8225D96EF7
:10073000060E8321DA6E6B51300FDF6E824B832BF6
:100740007107D8A0720779C528F57AC529F57BC548
:100750002AF57CC52BF57DC513F57EC514F57FC53F
:1007600015F580C516F588C50FF589C510F58AC53C
:1007700011F58BC512F555EC84F00FC52CF510C59D
:100780002DF511C52EF512C52FF536EC8FF028C5C5
:1007900079F529C57AF52AC57BF52BC57CF588C581
:1007A00028F589C529F58AC52AF58BC52BF5000ED4
:1007B0002C6E000E2D6E200E2E6E410E2F6EC3EC91
:1007C00088F028C588F529C589F52AC58AF52BC57D
:1007D0008BF505016007D8A06107774B782B6D5129
:1007E000775D7851800A5C6E6E51800A5C58D8B093
:1007F00008D083BF27D7835104E14B0E825DD8A078
:1008000021D7000E786F4F0E776F000E7725D96EC7
:10081000060E7821DA6EDF6A000E5C6E060E5D6EE3
:1008200082515C5E83515D5A77515C24016E785130
:100830005D20026E000E036E060E046E82C505F585
:1008400083C506F559EC8FF08251775D826F835135
:100850007859836F8151D8B402D0010E01D0000EB7
:10086000776F786B8151D8B40BD08207D8A08307FB
:10087000000E8225D96E060E8321DA6E81C5DFF463
:100880007751715F7851725B55C512F556C513F5F6
:10089000000E8225146E060E8321156E71C516F5A5
:1008A00072C517F5A5EC8EF012001250800B1B6E6E
:1008B00012501224216E11BE21802150D8B40DD0C7
:1008C0002128D8A408D0000E0F6E000E106E000E66
:1008D000116E000E126E118E08D0000E0F6E000EFB
:1008E000106E000E116E000E126E1650800B1B1A49
:1008F000165016241C6E15BE1C801C50D8B40DD08A
:100900001C28D8A408D0000E136E000E146E000E22
:10091000156E000E166E158E08D0000E136E000EAA
:10092000146E000E156E000E166E1C50D8B403D057
:100930002150D8A409D0000E0F6E000E106E000ECC
:10094000116E000E126E120015500F02F3C426F540
:10095000F4C427F526501D6E1E6A1F6A206A2750B0
:10096000226E236A246A256A14501002F3C426F505
:10097000F4C427F526501D26000E1E221F22202219
:1009800027502226000E2322242225221350110252
:10099000F3C426F5F4C427F526501D26000E1E22AA
:1009A0001F22202227502226000E23222422252225
:1009B0001FC520F51EC51FF51DC51EF51D6A135068
:1009C0001002F3C426F5F4C427F526501D2627503F
:1009D0001E22000E1F22000E202214500F02F3C40C
:1009E00026F5F4C427F526501D2627501E22000E9A
:1009F0001F22000E20221FC520F51EC51FF51DC594
:100A00001EF51D6A13500F02F3C426F5F4C427F532
:100A100026501D2627501E22000E1F22000E2022C7
:100A200015501002F3C426F5F4C427F526502226EB
:100A300027502322000E2422000E252214501102DA
:100A4000F3C426F5F4C427F5265022262750232286
:100A5000000E2422000E252215501102F3C426F5A3
:100A6000F4C427F52650176E2750186E196A1A6AB3
:100A700019C51AF518C519F517C518F5176A1750CD
:100A8000222618502322195024221A5025222050A1
:100A90002226000E2322242225221FC520F51EC552
:100AA0001FF51DC51EF51D6A1C5021C517F5186AD6
:100AB0001726000E1822820E1724266EFF0E18200D
:100AC000276E0FD0D890223623362436253620BE06
:100AD0002280D8901D361E361F3620362606D8A016
:100AE000270624AEEFD7000E1C6E20AE17D0FF0EE7
:100AF0001D14176EFF0E1E14186EFF0E1F14196EB4
:100B00007F0E20141A6E1750181019101A10D8B42E
:100B100003D0010E1C6E02D022B0FBD71C50D8B4FB
:100B20001FD0010E2226000E23222422252225A0DA
:100B300017D022C517F523C518F524C519F525C505
:100B40001AF51A341A3219321832173217C522F52B
:100B500018C523F519C524F51AC525F5264A272AEF
:100B600027BE0DD0275003E12628D8A008D0000EBC
:100B7000226E000E236E800E246E7F0E20D027BEC4
:100B800005D027500EE12604D8B00BD0000E226EFF
:100B9000000E236E000E246E000E256E000E1B6EDE
:100BA0000FD026C521F5FF0E2216FF0E23167F0E4D
:100BB0002416000E251621B0248ED8902130256EE3
:100BC0001B50251222C50FF523C510F524C511F5BC
:100BD00025C512F512000450800B0D6E045004243C
:100BE0000F6E03BE0F800F50D8B40DD00F28D8A4BD
:100BF00008D0000E016E000E026E000E036E000E95
:100C0000046E038E06D0000E016E000E026E000E02
:100C1000036E000E046E0850800B0E6E0D500E1801
:100C2000D8A40D8C085008240E6E07BE0E800E50FE
:100C3000D8B40DD00E28D8A408D0000E056E000E32
:100C4000066E000E076E000E086E078E06D0000EB0
:100C5000056E000E066E000E076E000E086E0F5039
:100C60000E5CD8B022D00DAC02D0800E0D1A0FC58C
:100C700010F50EC50FF510C50EF501C510F505C52B
:100C800001F510C505F502C510F506C502F510C53C
:100C900006F503C510F507C503F510C507F504C52E
:100CA00010F508C504F510C508F5000E106E0F50BC
:100CB0000EC509F50A6A095E000E0A5A0ABE2CD052
:100CC0000A5004E11A0E095CD8A026D00150021087
:100CD00003100410D8B402D0010E01D0000E106E23
:100CE000000E016E000E026E000E036E000E046E0A
:100CF0000EC50FF515D010A005D0D8901030010901
:100D0000106E02D0D890103201B0108E043404322C
:100D10000332023201320F2A0E500F5CD8A0EBD7FB
:100D20000DBC28D00F50D8A409D0000E016E000EC3
:100D3000026E000E036E000E046E120005500126B6
:100D400006500222075003220850042204A071D04A
:100D500010A005D0D89010300109106E02D0D890A4
:100D6000103201B0108E04340432033202320132E8
:100D70000F2A5FD00550015C0650025807500358F7
:100D80000450800A096E0850800A0958D8B025D04E
:100D90000150055C096E025006580A6E0350075850
:100DA0000B6E045008580C6EFF0E0924016EFF0EE6
:100DB0000A20026EFF0E0B20036EFF0E0C20046E45
:100DC000800E0D1A106C1050D8A40FD0010E012601
:100DD000000E02220322042208D00550015E0650B4
:100DE000025A0750035A0850045A015002100310C7
:100DF0000410D8A41CD01050D8A419D0000E016E35
:100E0000000E026E000E036E000E046E1200D890EB
:100E1000013602360336043610BE018010A002D01F
:100E2000D88001D0D89010360F50D8A40F0603AE4A
:100E3000EED7000E0E6E10AE0BD010C509F57F0E6A
:100E40000916D8B403D0010E0E6E02D001B0FBD744
:100E50000E50D8B420D0010E0126000E022203222B
:100E6000042204A018D001C509F502C50AF503C57E
:100E70000BF504C50CF50C340C320B320A32093276
:100E800009C501F50AC502F50BC503F50CC504F546
:100E90000F28D8A40F2A0F28D8B403D00F50D8A4F5
:100EA0000DD0000E016E000E026E000E036E000EDD
:100EB000046E0F50D8A402D0000E0D6E0FA002D009
:100EC000038E01D0039ED8900F30046E0DBE048EA9
:100ED00001C501F502C502F503C503F504C504F516
:100EE0001200080E0001B16F000E0401186F19699D
:100EF000C968000E106F1169C868009BBE8AC69A47
:100F000008950985C78408930983C78208910981D8
:100F1000C78000950185C6843F0E0201026F04015F
:100F20000093C692000E436F000E446F010E456F92
:100F3000000E476F4691468B468F0099BE88C69833
:100F40002095C294CA940091BE90C69008990989D0
:100F5000C7882091C290CA902093C292CA920897E3
:100F6000BF86C796010E0201D56FA00ED46FD1893E
:100F7000D18B0401009FC68E070E0201766F04011B
:100F8000009DBE8CC69C260E0201076FD28F000EFC
:100F9000136E240E146EF40E156E410E166E0401BF
:100FA0004351016E4451026E4551036E046A000EB6
:100FB000E9EC8BF001C50FF502C510F503C511F57D
:100FC00004C512F555EC84F00FC528F510C529F5B8
:100FD00011C52AF512C52BF5000E2C6E240E2D6EB0
:100FE000740E2E6E490E2F6EC3EC88F028C5ABF53B
:100FF00029C5ACF52AC5ADF52BC5AEF5E30E050147
:10100000A16FFF0EA26FABC5A3F5ACC5A4F5ADC52E
:10101000A5F5AEC5A6F5EBEC8FF0000EB06F000E97
:10102000AF6F500EAF25D96E060EB021DA6EDF6AB3
:10103000AF4BB02BB0BFF5D7100EB05DD8A0F1D735
:10104000550E0401596FAA0E596F5991080E5D6F24
:10105000000E5E6F000E5F6F550E596FAA0E596F2E
:101060005981D68EBE9ACEA4FED7D1C4BEF5D0C4C7
:10107000BDF5BE98CEB4FED7CFB05CD0CFB447D0CC
:10108000000EC86ED1AE2AD0000E0501BD15A96FA5
:10109000C00EBE15AA6FC00EAA19A911D8A40BD0F4
:1010A000FF0EBD15A96F3F0EBE15AA6FE30EA92551
:1010B000F66EBF0E0AD0FF0EBD15A96F3F0EBE150E
:1010C000AA6FE30EA925F66E7F0EAA21F76EF86AC5
:1010D000000EF8220800F5C4C0F40FD0100E050170
:1010E000BE5DD8B009D0500EBD25D96E060EBE210A
:1010F000DA6EDF50C06E01D0C068B7A002D0C284E3
:1011000001D0C294BE88CFA4FED7C868ACD7CFB2F6
:10111000AAD7100E0501BE5DD8B008D0500EBD256F
:10112000D96E060EBE21DA6ED0C4DFF4BE88CFB20F
:101130009AD7FDD7CFB41DD0000EC86E0501BD05EE
:10114000BE11D8A408D0000EB7B0010E020DF350A6
:10115000B7B2010F08D0BD51BE11D8A403D0C7C289
:10116000C0F402D0000EC06EBE88CFA4FED7C868FF
:1011700006D00501BD51BE11D8B4D0C4C9F2BE8895
:10118000CFB271D7FDD72B50800B386E2B502B244C
:101190003F6E2ABE3F803F50D8B40DD03F28D8A420
:1011A00008D0000E286E000E296E000E2A6E000E6A
:1011B0002B6E2A8E06D0000E286E000E296E000EB1
:1011C0002A6E000E2B6E2F50800B381A2F502F24B2
:1011D000406E2EBE40804050D8B40DD04028D8A4D8
:1011E00008D0000E2C6E000E2D6E000E2E6E000E1E
:1011F0002F6E2E8E06D0000E2C6E000E2D6E000E61
:101200002E6E000E2F6E2C502D102E102F10D8A4E5
:1012100017D0000E286E000E296E000E2A6E000EEA
:101220002B6E800E2A127F0E2B1238502B1228C5DF
:1012300028F529C529F52AC52AF52BC52BF5120055
:101240003F50D8A409D0000E286E000E296E000E63
:101250002A6E000E2B6E120040503FC530F5316AE9
:10126000305E000E315A7F0E3024396E000E312070
:101270003A6E28C534F529C535F52AC536F52BC58E
:1012800037F5000E286E000E296E000E2A6E000E35
:101290002B6E000E3B6E000E3C6E000E3D6E000E7F
:1012A0003E6E000E406E28D04050D8B411D0D89079
:1012B0003436353636363736D890283629362A36FB
:1012C0002B363EBE2880D8903B363C363D363E36E7
:1012D0002C50345C2D5035582E5036582F503758DE
:1012E000D8A009D03E8C2C50345E2D50355A2E504B
:1012F000365A2F50375A402A190E4064D5D73450E9
:10130000351036103710D8B411D03B800FD0D8909C
:10131000283629362A362B363EBE2880D8903B36D2
:101320003C363D363E363906D8A03A062AAEEFD7CF
:10133000000E406E3EAE17D0FF0E3B14306EFF0E17
:101340003C14316EFF0E3D14326E7F0E3E14336E30
:101350003050311032103310D8B403D0010E406E2B
:1013600002D028B0FBD74050D8B41FD0010E282699
:10137000000E29222A222B222BA017D028C530F5B7
:1013800029C531F52AC532F52BC533F5333433324F
:1013900032323132303230C528F531C529F532C507
:1013A0002AF533C52BF5394A3A2A3ABE10D03A50BD
:1013B00003E13928D8A00BD0000E3A6E3968000E30
:1013C000286E000E296E000E2A6E000E2B6E3ABE9D
:1013D00005D03A5011E13904D8B00ED0000E3A6E63
:1013E000000E396E000E286E000E296E000E2A6E59
:1013F000000E2B6E000E386E39C53FF53FA002D0AF
:101400002A8E01D02A9ED8903F302B6E0ED78EC5E3
:10141000D9F48FC5DAF4DEC4F6F4DDC4F7F4000EB7
:10142000F86E0800F550250AD8A4EAD08EC5D9F484
:101430008FC5DAF4DE2A000EDD22000EBA6F000E30
:10144000B96FB9C5BFF5BB69BC698EC507F58FC556
:1014500008F590C509F591C50AF5B4EC8DF007C5FE
:10146000B9F508C5BAF50501BAAF05D0BF81B96DA8
:10147000BA1FD8B0BA2B8EC5D9F48FC5DAF4DEC442
:10148000F6F4DDC4F7F4000EF86E0800F5502E0AED
:10149000D8A415D08EC5D9F48FC5DAF4DE2A000E93
:1014A000DD228EC507F58FC508F590C509F591C5F4
:1014B0000AF5B4EC8DF007C5BBF508C5BCF58EC5C3
:1014C000D9F48FC5DAF4DEC497F5DDC498F597C575
:1014D000F6F498C5F7F4000EF86E0800F5C496F51A
:1014E00008D0974B982B18D06C0E01D0000E966F39
:1014F00013D0050196515E6E5F6A5F50000AD8A452
:10150000F5D75E504C0AD8B4ECD72A0AD8B4ECD739
:101510000A0AD8B4E6D7EAD797C5F6F498C5F7F41F
:10152000000EF86E0800F550660AD8B41AD060D0E4
:1015300090C5D9F491C5DAF4DFC45EF5040EDE2659
:10154000DFC45FF5000EDD225EC5D9F45FC5DAF4B5
:10155000DEC492F5DEC493F5DEC494F5DEC495F5E1
:101560000ED096515E6E5F6A5F50000AD8A407D015
:101570005E504C0AD8B4DCD7200AD8B4D9D7010EB3
:1015800097255E6E000E98215F6E8EC5D9F48FC5CB
:10159000DAF45EC5DEF45FC5DDF418D08CC555F510
:1015A0008DC556F592C557F593C558F594C559F5AF
:1015B00095C55AF597C5F6F498C5F7F4000EF86E80
:1015C0000800F5C45BF500EC80F0120097C5F6F456
:1015D00098C5F7F4000EF86E0800F5505E6E5F6A6D
:1015E0005F50000AD8A404D05E50660AD8B4D6D79B
:1015F0008EC5D9F48FC5DAF4DE2A000EDD22120082
:101600008EC5D9F48FC5DAF4DEC4F6F4DDC4F7F480
:10161000000EF86E0800F550026E036A8CC504F5E2
:101620008DC505F510EC8EF0E3D7B1C551F5B2C507
:1016300052F5B3C553F5B4C554F541C551F542C58E
:1016400052F543C553F544C554F5810E456EFF0E62
:10165000466E51C547F552C548F553C549F554C5C1
:101660004AF5180E05D0D8904A32493248324732EE
:10167000E82EF9D7475045244F6E000E4620506E95
:1016800050BE0FD0505004E1170E4F5CD8A009D0C7
:1016900041C541F542C542F543C543F544C544F54E
:1016A000120050BE5BD04FC545F5FF0E466EFF0ED3
:1016B000476E7F0E486E000E496E456601D007D01A
:1016C00049344932483247324632452EF6D746C56C
:1016D0004BF547C54CF548C54DF549C54EF54B5042
:1016E0005114456E4C505214466E4D505314476E73
:1016F0004E505414486E4550461047104810D8B408
:10170000C7D751C545F552C546F553C547F554C52C
:1017100048F5200E05D0D89048324732463245323F
:10172000E82EF9D74550D8B408D04B5051264C502C
:1017300052224D5053224E5054224B1C456E4C1C8D
:10174000466E4D1C476E4E1C486E45505116465015
:101750005216475053164850541632D051C545F5CD
:1017600052C546F553C547F554C548F5200E05D07A
:10177000D8904832473246324532E82EF9D745668E
:1017800008D0000E516E000E526E000E536E000E09
:1017900016D0D8905134456E5234466E5334476E4D
:1017A0005434486E4550461047104810D8B408D0FD
:1017B000000E516E000E526E800E536EBF0E546EB0
:1017C00051C541F552C542F553C543F554C544F5DD
:1017D0001200096E0950D8A404AE1AD001C505F54F
:1017E00002C506F503C507F504C508F5051E061E66
:1017F000071E081E052A000E06220722082205C51C
:101800000BF506C50CF507C50DF508C50EF508D096
:1018100001C50BF502C50CF503C50DF504C50EF5A4
:101820000150021003100410D8A409D0000E016E5C
:10183000000E026E000E036E000E046E1200960E75
:101840000A6E06D00A2AD8900E320D320C320B32B4
:10185000000E0B14056E000E0C14066E000E0D1417
:10186000076EFE0E0E14086E0550061007100810C5
:10187000D8B40DD0E7D70A2A010E0B26000E0C2291
:101880000D220E22D8900E320D320C320B32000E89
:101890000B14056E000E0C14066E000E0D14076E70
:1018A000FF0E0E14086E0550061007100810D8B46D
:1018B00007D0E1D70A06D8900B360C360D360E3617
:1018C0000DBE03D0020E0A60F5D70AA00D9ED89077
:1018D0000A320AC505F5066A076A086A05C508F5E9
:1018E000076A066A056A05500B1206500C1207506B
:1018F0000D1208500E120950D8A404AE01D00E8E5D
:101900000BC501F50CC502F50DC503F50EC504F5B3
:101910001200000E2814306E000E2914316E800E55
:101920002A14326E7F0E2B14336E30503110321069
:101930003310D8A408D0000E286E000E296E000EB9
:101940002A6E000E2B6E000E2C14306E000E2D141D
:10195000316E800E2E14326E7F0E2F14336E305087
:10196000311032103310D8A408D0000E2C6E000EA7
:101970002D6E000E2E6E000E2F6E2BAE09D0286C31
:10198000291ED8B0292A2A1ED8B02A2A800E2B5602
:101990002FAE09D02C6C2D1ED8B02D2A2E1ED8B0FB
:1019A0002E2A800E2F56000E281A000E291A000E1D
:1019B0002A1A800E2B1A000E2C1A000E2D1A000E59
:1019C0002E1A800E2F1A2C50285C2D5029582E507C
:1019D0002A582F502B58D8B002D0D8901200D88057
:1019E0001200B5C50BF5B6C50CF5B7C50DF5B8C5F4
:1019F0000EF501C50BF502C50CF503C50DF504C5C3
:101A00000EF50BC505F50CC506F50DC507F50EC59C
:101A100008F5180E05D0D890083207320632053284
:101A2000E82EF9D70550096E0A6A09500A10D8A4A1
:101A300019D0D8900B34056E0C34066E0D34076E39
:101A40000E34086E0550061007100810D8A405D0F3
:101A5000000E026E020E016E1200000E026E030EE8
:101A6000016E120009280A10D8A41CD00BC505F578
:101A70000CC506F50DC507F50EC508F5090ED8907D
:101A80000536063607360836E82EF9D70550061013
:101A900007100810D8A402D0010E01D0000E016E6C
:101AA000026A1200000E026E040E016E1200033470
:101AB00004340A6E0A50D8A409D0000E016E000E3C
:101AC000026E000E036E000E046E120001C505F5D5
:101AD00002C506F503C507F504C508F5200E05D0B7
:101AE000D8900832073206320532E82EF9D7055071
:101AF000096E038EFF0E0116FF0E0216FF0E03166F
:101B0000000E0416960E0A5E0AAE0DD00A50800A28
:101B1000970FD8A0D2D7D8900432033202320132C4
:101B20000A3EF9D70DD01F0E0A6407D0C6D7D89049
:101B300001360236033604360A060A50D8A4F7D70F
:101B40000950D8B408D0041E031E021E016C000EFA
:101B500002220322042201C501F502C502F503C5D4
:101B600003F504C504F51200000E0F6E000E0E6E94
:101B700007C5D9F408C5DAF4DEC4F6F4DDC4F7F419
:101B8000000EF86E0800F5502A0AD8A433D007C515
:101B9000D9F408C5DAF4DE2A000EDD2209C5D9F42D
:101BA0000AC5DAF4DFC40BF5020EDE26DFC40CF53D
:101BB000000EDD220BC5D9F40CC5DAF4DEC40EF537
:101BC000DDC40FF528D00EC501F50FC502F5000ED6
:101BD000046E0A0E036EFEEC8FF00D5001240E6EA3
:101BE000000E02200F6E07C5D9F408C5DAF4DE2A0C
:101BF000000EDD2207C5D9F408C5DAF4DEC4F6F418
:101C0000DDC4F7F4000EF86E0800F550D00F0D6E2D
:101C1000090E0D64D8D70EC507F50FC508F51200DB
:101C200004500510D8B404D004500510D8A404D032
:101C3000025011EC90F0120020EE0AF00450D92668
:101C40000550DA22DE50DE10D8B416D020EE0AF0AD
:101C50000450D9260550DA2210EE03F00450E12694
:101C60000550E222DE50E65CE650800A0A6EDE5045
:101C7000800A0A58D8B0120020EE03F00450D9268A
:101C80000550DA22DEC406F5DDC407F504C5D9F433
:101C900005C5DAF4DEC408F5DDC409F506500824EC
:101CA000D96E07500920DA6E02C5DFF420EE03F08A
:101CB0000450D9260550DA22DE2A000EDD22120059
:101CC000000E0114096E000E02140A6E800E031439
:101CD0000B6E7F0E04140C6E09500A100B100C10C2
:101CE000D8A408D0000E016E000E026E000E036E26
:101CF000000E046E000E0514096E000E06140A6E26
:101D0000800E07140B6E7F0E08140C6E09500A101B
:101D10000B100C10D8A408D0000E056E000E066E35
:101D2000000E076E000E086E055001180AE10650FD
:101D3000021807E10750031804E108500418D8B44A
:101D400002D0D8901200D8801200BFA10AD014C5CA
:101D50000BF515C50CF512C50DF513C50EF5B8EC50
:101D60008FF017BE05D016C51BF517C51CF504D09E
:101D7000000E1C6E000E1B6E000E1A6E000E196E09
:101D80000CD0000E036E200E026E12C504F513C5B2
:101D900005F510EC8EF0194A1A2A1B50195C1A50DE
:101DA000800A186E1C50800A1858D8A0EAD705017E
:101DB000BFB1120014C50BF515C50CF512C50DF514
:101DC00013C50EF5B8EC8FF0120004BE07D0045016
:101DD000031002101DE10104D8B01AD001C505F5A9
:101DE00002C506F503C507F504C508F5051E061E60
:101DF000071E081E052A000E06220722082205C516
:101E000001F506C502F507C503F508C504F512007E
:101E100001C501F502C502F503C503F504C504F5C6
:101E200012009BC59FF59CC5A0F50FD099C58CF5F8
:101E30009AC58DF59F0E05018E6F050E8F6F9DC59E
:101E400090F59EC591F507EC8AF09FC5F6F4A0C504
:101E5000F7F4000EF86E0800F5500009D8A4E6D794
:101E6000000E05019A6F000E996F1200000E2C1AD9
:101E7000000E2D1A000E2E1A800E2F1A28C501F5FD
:101E800029C502F52AC503F52BC504F52CC505F5B2
:101E90002DC506F52EC507F52FC508F5EBEC85F029
:101EA00001C528F502C529F503C52AF504C52BF59A
:101EB000120003C509F504C50AF501C507F502C5F9
:101EC00008F510D009C5D9F40AC5DAF4DF500B6E55
:101ED000094A0A2A07C5D9F408C5DAF40BC5DFF4A4
:101EE000074A082A0506D8A006060528EBE10628B9
:101EF000D8B41200E7D701EE50F214EE00F0EE6A0B
:101F0000E550E150FCE1E250FAE101EE00F2500E42
:101F1000EE6AE806FDE101EEB1F10F0EEE6AE806A9
:101F2000FDE10401080E5D6F000E5E6F000E5F6F35
:101F3000000171EF87F003C505F504C506F501C57D
:101F400007F502C508F505C5F6F406C5F7F4054A18
:101F5000062A000EF86E07C5D9F408C5DAF4074A58
:101F6000082A0800F5C4DFF4DF50D8B41200EBD71C
:101F7000000E116E000E106E0BD00FC502F5036A35
:101F80000DC504F50EC505F510EC8EF0104A112AAA
:101F900010500B24D96E11500C20DA6EDF500F6EEA
:101FA0000F50D8B41200E9D70150021003100410EA
:101FB000D8B408D0000E011A000E021A000E031A3F
:101FC000800E041A01C501F502C502F503C503F52B
:101FD00004C504F51200A30EA76F050EA86F000E2E
:101FE000996F000E9A6FA1C59BF5A2C59CF5A70E2F
:101FF0009D6F050E9E6F11EC8FF0120001500302D1
:10200000F3C405F5F4C406F501500402F3500626A6
:1020100002500302F350062605C501F506C502F578
:0E2020001200016EB7A2FED701C5C9F2120070
:0220300011009D
:020000040020DA
:10000000FFFFFFFFFFFFFFFFFFFFFFFFFFFFFFFF00
:10001000FFFFFFFFFFFFFFFFFFFFFFFFFFFFFFFFF0
:10002000FFFFFFFFFFFFFFFFFFFFFFFFFFFFFFFFE0
:10003000FFFFFFFFFFFFFFFFFFFFFFFFFFFFFFFFD0
:020000040030CA
:080000008CFFFFF79FFFFFFFDB
:01000900FFF7
:00000001FF
